{
  "_format": "hh-sol-artifact-1",
  "contractName": "Captchain",
  "sourceName": "contracts/Captchain.sol",
  "abi": [
    {
      "inputs": [
        {
          "internalType": "address",
          "name": "_captchaGenerator",
          "type": "address"
        },
        {
          "internalType": "bytes32",
          "name": "_salt",
          "type": "bytes32"
        }
      ],
      "stateMutability": "nonpayable",
      "type": "constructor"
    },
    {
      "inputs": [
        {
          "internalType": "bytes",
          "name": "_response",
          "type": "bytes"
        },
        {
          "components": [
            {
              "internalType": "bytes32",
              "name": "solution",
              "type": "bytes32"
            },
            {
              "internalType": "uint256",
              "name": "duration",
              "type": "uint256"
            }
          ],
          "internalType": "struct Captchain.Captcha",
          "name": "captcha",
          "type": "tuple"
        },
        {
          "internalType": "uint8",
          "name": "v",
          "type": "uint8"
        },
        {
          "internalType": "bytes32",
          "name": "r",
          "type": "bytes32"
        },
        {
          "internalType": "bytes32",
          "name": "s",
          "type": "bytes32"
        }
      ],
      "name": "captchaVerify",
      "outputs": [
        {
          "internalType": "bool",
          "name": "",
          "type": "bool"
        }
      ],
      "stateMutability": "nonpayable",
      "type": "function"
    },
    {
      "inputs": [
        {
          "internalType": "address",
          "name": "_address",
          "type": "address"
        }
      ],
      "name": "isVerified",
      "outputs": [
        {
          "internalType": "bool",
          "name": "",
          "type": "bool"
        }
      ],
      "stateMutability": "view",
      "type": "function"
    },
    {
      "inputs": [
        {
          "internalType": "address",
          "name": "_captchaGenerator",
          "type": "address"
        }
      ],
      "name": "setGenerator",
      "outputs": [],
      "stateMutability": "nonpayable",
      "type": "function"
    },
    {
      "inputs": [
        {
          "internalType": "bytes32",
          "name": "_salt",
          "type": "bytes32"
        }
      ],
      "name": "setSalt",
      "outputs": [],
      "stateMutability": "nonpayable",
      "type": "function"
    }
  ],
  "bytecode": "0x60806040523480156200001157600080fd5b50604051620011493803806200114983398181016040528101906200003791906200029d565b33600160006101000a81548173ffffffffffffffffffffffffffffffffffffffff021916908373ffffffffffffffffffffffffffffffffffffffff16021790555081600260006101000a81548173ffffffffffffffffffffffffffffffffffffffff021916908373ffffffffffffffffffffffffffffffffffffffff160217905550806003819055506200017260405180608001604052806040518060400160405280600781526020017f436170746368610000000000000000000000000000000000000000000000000081525081526020016040518060400160405280600181526020017f31000000000000000000000000000000000000000000000000000000000000008152508152602001600181526020013073ffffffffffffffffffffffffffffffffffffffff168152506200018060201b60201c565b60008190555050506200037e565b60007f8b73c3c69bb8fe3d512ecc4cf759cc79239f7b179b0ffacaa9a75d522b39400f82600001518051906020012083602001518051906020012084604001518560600151604051602001620001db95949392919062000321565b604051602081830303815290604052805190602001209050919050565b600080fd5b600073ffffffffffffffffffffffffffffffffffffffff82169050919050565b60006200022a82620001fd565b9050919050565b6200023c816200021d565b81146200024857600080fd5b50565b6000815190506200025c8162000231565b92915050565b6000819050919050565b620002778162000262565b81146200028357600080fd5b50565b60008151905062000297816200026c565b92915050565b60008060408385031215620002b757620002b6620001f8565b5b6000620002c7858286016200024b565b9250506020620002da8582860162000286565b9150509250929050565b620002ef8162000262565b82525050565b6000819050919050565b6200030a81620002f5565b82525050565b6200031b816200021d565b82525050565b600060a082019050620003386000830188620002e4565b620003476020830187620002e4565b620003566040830186620002e4565b620003656060830185620002ff565b62000374608083018462000310565b9695505050505050565b610dbb806200038e6000396000f3fe608060405234801561001057600080fd5b506004361061004c5760003560e01c80634a7c7e4b14610051578063611ef44f1461006d57806383e8f9bc14610089578063b9209e33146100b9575b600080fd5b61006b60048036038101906100669190610618565b6100e9565b005b6100876004803603810190610082919061067b565b6101bd565b005b6100a3600480360381019061009e919061076a565b610257565b6040516100b0919061081f565b60405180910390f35b6100d360048036038101906100ce9190610618565b61041c565b6040516100e0919061081f565b60405180910390f35b600160009054906101000a900473ffffffffffffffffffffffffffffffffffffffff1673ffffffffffffffffffffffffffffffffffffffff163373ffffffffffffffffffffffffffffffffffffffff1614610179576040517f08c379a000000000000000000000000000000000000000000000000000000000815260040161017090610897565b60405180910390fd5b80600260006101000a81548173ffffffffffffffffffffffffffffffffffffffff021916908373ffffffffffffffffffffffffffffffffffffffff16021790555050565b600160009054906101000a900473ffffffffffffffffffffffffffffffffffffffff1673ffffffffffffffffffffffffffffffffffffffff163373ffffffffffffffffffffffffffffffffffffffff161461024d576040517f08c379a000000000000000000000000000000000000000000000000000000000815260040161024490610897565b60405180910390fd5b8060038190555050565b6000600560008660000135815260200190815260200160002060009054906101000a900460ff16156102be576040517f08c379a00000000000000000000000000000000000000000000000000000000081526004016102b590610903565b60405180910390fd5b86866003546040516020016102d593929190610983565b60405160208183030381529060405280519060200120856000013514610330576040517f08c379a0000000000000000000000000000000000000000000000000000000008152600401610327906109f9565b60405180910390fd5b61034c858036038101906103449190610b30565b858585610468565b61038b576040517f08c379a000000000000000000000000000000000000000000000000000000000815260040161038290610ba9565b60405180910390fd5b84602001354261039b9190610bf8565b600460003373ffffffffffffffffffffffffffffffffffffffff1673ffffffffffffffffffffffffffffffffffffffff168152602001908152602001600020819055506001600560008760000135815260200190815260200160002060006101000a81548160ff021916908315150217905550600190509695505050505050565b6000600460008373ffffffffffffffffffffffffffffffffffffffff1673ffffffffffffffffffffffffffffffffffffffff168152602001908152602001600020544211159050919050565b6000806000546104778761054a565b604051602001610488929190610ca5565b604051602081830303815290604052805190602001209050600260009054906101000a900473ffffffffffffffffffffffffffffffffffffffff1673ffffffffffffffffffffffffffffffffffffffff16600182878787604051600081526020016040526040516104fc9493929190610cfa565b6020604051602081039080840390855afa15801561051e573d6000803e3d6000fd5b5050506020604051035173ffffffffffffffffffffffffffffffffffffffff1614915050949350505050565b60007f2790ad512e53720712089c27457fc2b44a67a78dd323ef622f04a22dbf5a06558260000151836020015160405160200161058993929190610d4e565b604051602081830303815290604052805190602001209050919050565b6000604051905090565b600080fd5b600080fd5b600073ffffffffffffffffffffffffffffffffffffffff82169050919050565b60006105e5826105ba565b9050919050565b6105f5816105da565b811461060057600080fd5b50565b600081359050610612816105ec565b92915050565b60006020828403121561062e5761062d6105b0565b5b600061063c84828501610603565b91505092915050565b6000819050919050565b61065881610645565b811461066357600080fd5b50565b6000813590506106758161064f565b92915050565b600060208284031215610691576106906105b0565b5b600061069f84828501610666565b91505092915050565b600080fd5b600080fd5b600080fd5b60008083601f8401126106cd576106cc6106a8565b5b8235905067ffffffffffffffff8111156106ea576106e96106ad565b5b602083019150836001820283011115610706576107056106b2565b5b9250929050565b600080fd5b6000604082840312156107285761072761070d565b5b81905092915050565b600060ff82169050919050565b61074781610731565b811461075257600080fd5b50565b6000813590506107648161073e565b92915050565b60008060008060008060c08789031215610787576107866105b0565b5b600087013567ffffffffffffffff8111156107a5576107a46105b5565b5b6107b189828a016106b7565b965096505060206107c489828a01610712565b94505060606107d589828a01610755565b93505060806107e689828a01610666565b92505060a06107f789828a01610666565b9150509295509295509295565b60008115159050919050565b61081981610804565b82525050565b60006020820190506108346000830184610810565b92915050565b600082825260208201905092915050565b7f53616c742063616e206f6e6c7920626520736574206279206f776e6572000000600082015250565b6000610881601d8361083a565b915061088c8261084b565b602082019050919050565b600060208201905081810360008301526108b081610874565b9050919050565b7f4361707463686120616c72656164792075736564000000000000000000000000600082015250565b60006108ed60148361083a565b91506108f8826108b7565b602082019050919050565b6000602082019050818103600083015261091c816108e0565b9050919050565b600081905092915050565b82818337600083830152505050565b60006109498385610923565b935061095683858461092e565b82840190509392505050565b6000819050919050565b61097d61097882610645565b610962565b82525050565b600061099082858761093d565b915061099c828461096c565b602082019150819050949350505050565b7f416e73776572206e6f742076616c696400000000000000000000000000000000600082015250565b60006109e360108361083a565b91506109ee826109ad565b602082019050919050565b60006020820190508181036000830152610a12816109d6565b9050919050565b600080fd5b6000601f19601f8301169050919050565b7f4e487b7100000000000000000000000000000000000000000000000000000000600052604160045260246000fd5b610a6782610a1e565b810181811067ffffffffffffffff82111715610a8657610a85610a2f565b5b80604052505050565b6000610a996105a6565b9050610aa58282610a5e565b919050565b6000819050919050565b610abd81610aaa565b8114610ac857600080fd5b50565b600081359050610ada81610ab4565b92915050565b600060408284031215610af657610af5610a19565b5b610b006040610a8f565b90506000610b1084828501610666565b6000830152506020610b2484828501610acb565b60208301525092915050565b600060408284031215610b4657610b456105b0565b5b6000610b5484828501610ae0565b91505092915050565b7f43617074636861206973206e6f742076616c6964000000000000000000000000600082015250565b6000610b9360148361083a565b9150610b9e82610b5d565b602082019050919050565b60006020820190508181036000830152610bc281610b86565b9050919050565b7f4e487b7100000000000000000000000000000000000000000000000000000000600052601160045260246000fd5b6000610c0382610aaa565b9150610c0e83610aaa565b9250827fffffffffffffffffffffffffffffffffffffffffffffffffffffffffffffffff03821115610c4357610c42610bc9565b5b828201905092915050565b600081905092915050565b7f1901000000000000000000000000000000000000000000000000000000000000600082015250565b6000610c8f600283610c4e565b9150610c9a82610c59565b600282019050919050565b6000610cb082610c82565b9150610cbc828561096c565b602082019150610ccc828461096c565b6020820191508190509392505050565b610ce581610645565b82525050565b610cf481610731565b82525050565b6000608082019050610d0f6000830187610cdc565b610d1c6020830186610ceb565b610d296040830185610cdc565b610d366060830184610cdc565b95945050505050565b610d4881610aaa565b82525050565b6000606082019050610d636000830186610cdc565b610d706020830185610cdc565b610d7d6040830184610d3f565b94935050505056fea264697066735822122065ae0a2fd5cb691a778f3f49f647d64061d01cb8625f0c4d0da136c36fcbe2ef64736f6c634300080e0033",
  "linkReferences": {},
  "deployedLinkReferences": {}
}